:1001DF003F065B4F666D7D077F6F777C395E797168
:030003000115FFE5
:06019D00D2A7C2A77F05F6
:1001A3008F12E512D39400400A75137DD513FD1504
:0401B3001280EF22A5
:09012C00850B1CAB0CAD08AF0AF9
:10013500C2A6EF9001DF93F580D2A6C2A6C2A7752D
:1001450080FE12019DED934480F580D2A6C2A6756E
:1001550080FD12019DEB93F580D2A6C2A67580FBAA
:1001650012019DE51A934480F580D2A6C2A675803A
:10017500F712019DE51B93F580D2A6C2A67580EF07
:1001850012019DE51C93F580D2A6C2A67580DFD22B
:08019500A7C2A77F050201A328
:1001B70020B4057F0A1201A320B403750E0120B5F0
:0501C70003E4F50E2227
:10000E00758901D28C758C4CE4F58AD2A9D2AF12C7
:10001E0001B7E50E706ED28CE5106414450F702793
:10002E00F50FF51005141515851590E514B43C174C
:10003E00E4F5140511E511B43C0DE4F5110516E5D2
:10004E0016B46303E4F516E51675F00A8485F00818
:10005E00E51675F00A84F50AE51175F00A8485F047
:10006E0009E51175F00A84F50CE51475F00A84851E
:10007E00F00BE51475F00A84F50D85091AF51B12BF
:10008E00012C8002C28C85091A850D1B12012C02CF
:02009E00001D43
:03000B000201CC23
:1001CC00C0E0758C4C758A000510E5107002050FA7
:0301DC00D0E0323E
:030000000200A05B
:0C00A000787FE4F6D8FD75811C0200E7B3
:1000AC0002000EE493A3F8E493A34003F68001F25C
:1000BC0008DFF48029E493A3F85407240CC8C33355
:1000CC00C4540F4420C8834004F456800146F6DF24
:1000DC00E4800B0102040810204080900003E47EB1
:1000EC00019360BCA3FF543F30E509541FFEE49319
:1000FC00A360010ECF54C025E060A840B8E493A3E0
:10010C00FAE493A3F8E493A3C8C582C8CAC583CA0A
:10011C00F0A3C8C582C8CAC583CADFE9DEE780BEC2
:0100060000F9
:00000001FF
