:1001AC003F065B4F666D7D077F6F777C395E79719B
:100186008F0CE50CD39400400A750D7DD50DFD1539
:040196000C80EF22C8
:0501EB001201F0D2A199
:0301F000000022EA
:1000A800C2A6EF9001AC93F580D2A6C2A6C2A775EE
:1000B800807ED2A7C2A77F05120186C2A6ED93F55E
:1000C80080D2A6C2A6C2A775807DD2A7C2A77F0587
:0300D8000201869C
:10019A00E4FDFCC3ED9FEC9E50070DBD00010C80F1
:0101AA00F262
:0101AB002231
:0A01D700D2A11201F0D2A00201F043
:0F01BC00D2A01201EBC2A01201F0C2A10201F009
:0A01E100C2A01201EBD2A00201F04F
:10014C00E4FEEF25E0FFC2A11201F092A01201EB38
:0E015C000EBE08EEC2A11201F0D2A00201F008
:1000DB00E4FEC2A11201F0D2A0FD1201EB30A0048C
:1000EB007F018002E4FFEE25E04FFEC2A10DBD08AB
:0600FB00E91201F0AF065E
:0101010022DB
:0B01290012014C120134AF0512014C12
:10013400E4FFD2A11201F030A009EFC394FF5003F1
:080144000F80F4C2A10201F0DA
:02010200AD0747
:100104001201BC7FA01201291201BC7FA112014C73
:100114001201341200DBAB071201E17F647E00128E
:04012400019AAF038A
:0101280022B4
:10016A00AC071201BC7FA012014C120134AF041279
:0C017A0001291201E17F887E1302019A26
:100058001201D7E4FF1201027508008F0920B411BC
:1000680030B4FD0509E50970020508FDE4FF120139
:100078006A20B50BE4F508F509AD09FF12016AAE6F
:1000880008AF097C007D0A1200038F0AAE08AF0989
:100098007C007D0A1200038D0BAF0A1200A880BDF8
:030000000201CB2F
:0C01CB00787FE4F6D8FD75810D02005825
:10000300BC000BBE0029EF8DF084FFADF022E4CCE1
:10001300F875F008EF2FFFEE33FEEC33FCEE9DECAA
:10002300984005FCEE9DFE0FD5F0E9E4CEFD22EDF0
:10003300F8F5F0EE8420D21CFEADF075F008EF2F3A
:10004300FFED33FD4007985006D5F0F222C398FD2B
:050053000FD5F0EA22C8
:00000001FF
