:100118003F065B4F666D7D077F6F777C395E79712F
:03000300010EFFEC
:100104008F0BE50BD39400400A750C7DD50CFD15BF
:040114000B80EF224B
:1000D900EF90011893F580D2A6C2A67580EFD2A73A
:1000E900C2A77F05120104ED93F580D2A6C2A675B9
:0B00F90080DFD2A7C2A77F0502010430
:10009A00758901D28C758C4CE4F58AD2A9D2AFE568
:1000AA000AB41412E4F50A050D150E850E90E50D35
:1000BA00B43C03E4F50DE50D75F00A8485F008E516
:0F00CA000D75F00A84F509AD08FF1200D980D03A
:03000B00020128C7
:09012800758C4C758A00050A3241
:0300000002000EED
:0C000E00787FE4F6D8FD75810E020055E5
:10001A0002009AE493A3F8E493A34003F68001F262
:10002A0008DFF48029E493A3F85407240CC8C333E7
:10003A00C4540F4420C8834004F456800146F6DFB6
:10004A00E4800B0102040810204080900003E47E43
:10005A00019360BCA3FF543F30E509541FFEE493AB
:10006A00A360010ECF54C025E060A840B8E493A372
:10007A00FAE493A3F8E493A3C8C582C8CAC583CA9D
:10008A00F0A3C8C582C8CAC583CADFE9DEE780BE55
:0100060000F9
:00000001FF
