:08017E0002080000020A000063
:10011A00750C00750D01E509250DFFE508350CFE86
:10012A00D3EF94B8EE6480948B501AE50D2509F547
:10013A0009E50C3508F508050DE50D7002050C6496
:10014A0065450C70D1750E00750F01AE0EAF0F7CB0
:10015A00007D02118FED4C700CE50F250BF50BE5B8
:10016A000E350AF50A050FE50F7002050E6465459E
:04017A000E70D82209
:03000000020003F8
:0C000300787FE4F6D8FD75810F02004AFA
:10008F00C2D5EC30E709B2D5E4C39DFDE49CFCEE8C
:10009F0030E715B2D5E4C39FFFE49EFE1200C5C33F
:1000AF00E49DFDE49CFC80031200C530D507C3E43A
:0600BF009FFFE49EFE22FB
:10000F0002011AE493A3F8E493A34003F68001F2EC
:10001F0008DFF48029E493A3F85407240CC8C333F2
:10002F00C4540F4420C8834004F456800146F6DFC1
:10003F00E4800B010204081020408090017EE47ED2
:10004F00019360BCA3FF543F30E509541FFEE493B6
:10005F00A360010ECF54C025E060A840B8E493A37D
:10006F00FAE493A3F8E493A3C8C582C8CAC583CAA8
:10007F00F0A3C8C582C8CAC583CADFE9DEE780BE60
:010186000078
:1000C500BC000BBE0029EF8DF084FFADF022E4CC1F
:1000D500F875F008EF2FFFEE33FEEC33FCEE9DECE8
:1000E500984005FCEE9DFE0FD5F0E9E4CEFD22ED2E
:1000F500F8F5F0EE8420D21CFEADF075F008EF2F78
:10010500FFED33FD4007985006D5F0F222C398FD68
:050115000FD5F0EA2205
:00000001FF
