:100462003F065B4F666D7D077F6F777C395E7971E2
:010472000089
:06044800D2A7C2A77F0548
:10044E008F12E512D39400400A75137DD513FD1556
:04045E001280EF22F7
:1003E400C2A6EF90046293F580D2A6C2A6C2A775F6
:1003F40080FE120448ED93F580D2A6C2A67580FD56
:10040400120448EB93F580D2A6C2A67580FB1204B1
:1004140048E51793F580D2A6C2A67580F712044862
:10042400E51893F580D2A6C2A67580EF120448E5BC
:100434001993F580D2A6C2A67580DFD2A7C2A77F82
:040444000502044E5B
:100003007511EA751055750F01750E00E47F0AFE30
:10001300FDFCAB11AA10A90FA80EC31203D35008FD
:10002300851108750910803CE47F64FEFDFCAB116B
:10003300AA10A90FA80EC31203D3502DE47B0AFA0A
:10004300F9F8AF11AE10AD0FAC0E1203418F08E4F7
:100053007B0AFAF9F8AF11AE10AD0FAC0E120341E3
:10006300AF038F09750A108061E47FE87E03FDFC0E
:10007300AB11AA10A90FA80EC31203D35052E47BED
:1000830064FAF9F8AF11AE10AD0FAC0E1203418F45
:1000930008E47B64FAF9F8AF11AE10AD0FAC0E12A1
:1000A3000341AC00AD01AE02AF03E47B0AFAF9F8F9
:1000B3001203418F09E47B0AFAF9F8AF11AE10ADD0
:1000C3000FAC0E120341AF038F0A750B1002015AD6
:1000D300E47F107E27FDFCAB11AA10A90FA80EC365
:1000E3001203D35078E47BE87A03F9F8AF11AE102A
:1000F300AD0FAC0E1203418F08E47BE87A03F9F8E5
:10010300AF11AE10AD0FAC0E120341AC00AD01AE9A
:1001130002AF03E47B64FAF9F81203418F09E47B2D
:1001230064FAF9F8AF11AE10AD0FAC0E120341AC87
:1001330000AD01AE02AF03E47B0AFAF9F812034102
:100143008F0AE47B0AFAF9F8AF11AE10AD0FAC0ECB
:10015300120341AF038F0B750C100202117FA07EB7
:10016300867D017C00AB11AA10A90FA80EC3120350
:10017300D34003020217E47B107A27F9F8AF11AEDC
:1001830010AD0FAC0E1203418F08E47B107A27F9F0
:10019300F8AF11AE10AD0FAC0E120341AC00AD01C0
:1001A300AE02AF03E47BE87A03F9F81203418F0947
:1001B300E47BE87A03F9F8AF11AE10AD0FAC0E1281
:1001C3000341AC00AD01AE02AF03E47B64FAF9F87E
:1001D3001203418F0AE47B64FAF9F8AF11AE10AD54
:1001E3000FAC0E120341AC00AD01AE02AF03E47BD2
:1001F3000AFAF9F81203418F0BE47B0AFAF9F8AF14
:1002030011AE10AD0FAC0E120341AF038F0C750D81
:10021300100202F07F407E427D0F7C00AB11AA10DA
:10022300A90FA80EC31203D340030202F07BA07AE6
:100233008679017800AF11AE10AD0FAC0E120341F9
:100243008F087BA07A8679017800AF11AE10AD0FCD
:10025300AC0E120341AC00AD01AE02AF03E47B1060
:100263007A27F9F81203418F09E47B107A27F9F80A
:10027300AF11AE10AD0FAC0E120341AC00AD01AE29
:1002830002AF03E47BE87A03F9F81203418F0AE42F
:100293007BE87A03F9F8AF11AE10AD0FAC0E120381
:1002A30041AC00AD01AE02AF03E47B64FAF9F8128E
:1002B30003418F0BE47B64FAF9F8AF11AE10AD0F75
:1002C300AC0E120341AC00AD01AE02AF03E47B0AF6
:1002D300FAF9F81203418F0CE47B0AFAF9F8AF112B
:1002E300AE10AD0FAC0E120341AF038F0D850B178C
:1002F300850C18850D19AB0AAD09AF081203E4028A
:02030300000FE9
:0300000002047384
:0C047300787FE4F6D8FD758119020003C3
:1003050075F008758200EF2FFFEE33FECD33CDCCAF
:1003150033CCC58233C5829BED9AEC99E582984032
:100325000CF582EE9BFEED9AFDEC99FC0FD5F0D60F
:10033500E4CEFBE4CDFAE4CCF9A88222B800C1B939
:100345000059BA002DEC8BF084CFCECDFCE5F0CB77
:10035500F97818EF2FFFEE33FEED33FDEC33FCEBB0
:1003650033FB10D703994004EB99FB0FD8E5E4F96B
:10037500FA227818EF2FFFEE33FEED33FDEC33FC58
:10038500C933C910D7059BE99A4007EC9BFCE99A4C
:10039500F90FD8E0E4C9FAE4CCFB2275F010EF2F91
:1003A500FFEE33FEED33FDCC33CCC833C810D70791
:1003B5009BEC9AE899400AED9BFDEC9AFCE899F8CC
:0E03C5000FD5F0DAE4CDFBE4CCFAE4C8F9225F
:1003D300EB9FF5F0EA9E42F0E99D42F0E89C45F080
:0103E30022F7
:00000001FF
