:0400C600020A000129
:10008F00E50A702DE50B24FE600F14601424027036
:10009F002075080075090B800E75080075092380FF
:1000AF0006750800750948050BE50B70D3050A8026
:0600BF00CFE4F50AF50B89
:0100C5002218
:03000000020003F8
:0C000300787FE4F6D8FD75810B02004AFE
:10000F0002008FE493A3F8E493A34003F68001F278
:10001F0008DFF48029E493A3F85407240CC8C333F2
:10002F00C4540F4420C8834004F456800146F6DFC1
:10003F00E4800B01020408102040809000C6E47E8B
:10004F00019360BCA3FF543F30E509541FFEE493B6
:10005F00A360010ECF54C025E060A840B8E493A37D
:10006F00FAE493A3F8E493A3C8C582C8CAC583CAA8
:10007F00F0A3C8C582C8CAC583CADFE9DEE780BE60
:0100CA000035
:00000001FF
