:10002F004D6963726F436F6E74726F6C6C657200A3
:10003F0050726F74657573202F4B65696C20430088
:0A004F00ED93FF1200907FB87E0BC6
:10005900D3EF9400EE94004007EF1F70F31E80F079
:010069002274
:10007E008F80C2A0C2A1D2A27FC87E00120059C238
:02008E00A222AC
:100090008F80D2A0C2A1D2A27FC87E00120059C216
:0200A000A2229A
:10006A007F0112007E7F3812007E7F0F12007E7F92
:04007A000602007EFC
:1000030012006A7F8012007EE4FD90002F12004FE1
:100013000DBD0FF67FC012007EE4FD90003F12007D
:0C0023004F0DBD0FF67F0212007E80FE24
:030000000200A259
:0C00A200787FE4F6D8FD758107020003AA
:00000001FF
