:1009F9003F065B4F666D7D077F6F777C395E797146
:030A0900010A647B
:1009D2008F0BE50BD39400400A750C70D50CFD15F6
:0409E2000B80EF2275
:1009E600EF9009F993F580D2A6C2A67580C0D2A76A
:0309F600C2A72273
:10080000C2A6C2A775B0FE85B0085308F0E508641B
:10081000F0603A7F0A1209D2E50864F0602F85B0D3
:1008200008E5082482601B24C0601224E0600924CB
:10083000F07012E4F509800D750901800875090250
:100840008003750903AF091209E67590FE75B0FDC6
:1008500085B0085308F0E50864F0603A7F0A120991
:10086000D2E50864F0602F85B008E5082483601B9A
:1008700024C0601224E0600924F07012750904801D
:100880000D75090580087509068003750907AF090C
:100890001209E67590FD75B0FB85B0085308F0E5C8
:1008A0000864F0603A7F0A1209D2E50864F0602F0C
:1008B00085B008E5082485601B24C0601224E06030
:1008C0000924F07012750908800D750909800875F2
:1008D000090A800375090BAF091209E67590FB75CB
:1008E000B0FF85B0085308F0E50864F07003020813
:1008F000047F0A1209D2E50864F070030208048537
:10090000B008E5082481601B24C0601224E060095F
:1009100024F0701275090C800D75090D8008750999
:100920000E800375090FE50864F0601575B0FF854A
:10093000B0085308F0C2A3AF091209E67590F7801A
:06094000E5D2A302080449
:03000000020946AC
:0C094600787FE4F6D8FD75810C02098D65
:10095200020800E493A3F8E493A34003F68001F2B3
:1009620008DFF48029E493A3F85407240CC8C333A6
:10097200C4540F4420C8834004F456800146F6DF75
:10098200E4800B0102040810204080900A09E47EF2
:10099200019360BCA3FF543F30E509541FFEE4936A
:1009A200A360010ECF54C025E060A840B8E493A331
:1009B200FAE493A3F8E493A3C8C582C8CAC583CA5C
:1009C200F0A3C8C582C8CAC583CADFE9DEE780BE14
:010A0C0000E9
:00000001FF
