:0A007B003F065B4F666D7D077F6F47
:10005000D3EF9400EE94004015E4FCFD0DBD0001CB
:0E0060000CED647D4C70F5EF1F70E51E80E224
:01006E00226F
:10000300E4F508E50875F00A8490007B93F580E534
:100013000875F00A84E5F093F5A020B7FD7F0A7E0A
:100023000012005020B7F30508E508B46403E4F5B3
:1000330008E50875F00A8490007B93F580E5087560
:0D004300F00A84E5F093F5A020B7CF80FB14
:0300000002006F8C
:0C006F00787FE4F6D8FD758108020003DC
:00000001FF
