:10000300EFFAEDF8116074A011854047EA118540BD
:1000130042116074A11185403AC2D5DB02800611FA
:10002300B4F608DBFAD2D511B4F61172740022EFDC
:10003300FAEDF8116074A01185401DEA118540188E
:10004300E6118508DBFA11727F307E34DEFEDFFABB
:10005300740022117274FF22117274FF22D2B10054
:10006300D2B000000000C2B100000000C2B022C242
:10007300B100000000D2B000000000D2B1000000C7
:1000830000227F08334004C2B18003D2B10000D202
:10009300B000000000C2B0DFEB7E05D2B10000D299
:1000A300B000000020B104C3C2B022DEEED3C2B060
:1000B30022D2B17F0800C2B000000000D2B000001D
:1000C300C330B101D3330000DFEBC2B0000000C284
:0F00D300B130D502D2B10000D2B0000000C2B0EF
:0700E2000000C2D5C2B122EB
:0A01C7003F065B4F666D7D077F6FFA
:0301D10001080022
:100175007D087B017F12120003E50875F00A849063
:1001850001C793F580E50875F00A84E5F093F5A0BD
:1001950020B7FD0508E508B46403E4F508E508752E
:1001A500F00A849001C793F580E50875F00A84E5A7
:1001B500F093F5A07D087B017F1212003220B7D0A5
:0201C50080FBBD
:030000000200E912
:0C00E900787FE4F6D8FD75810802013034
:1000F500020175E493A3F8E493A34003F68001F2AB
:1001050008DFF48029E493A3F85407240CC8C3330B
:10011500C4540F4420C8834004F456800146F6DFDA
:10012500E4800B01020408102040809001D1E47E98
:10013500019360BCA3FF543F30E509541FFEE493CF
:10014500A360010ECF54C025E060A840B8E493A396
:10015500FAE493A3F8E493A3C8C582C8CAC583CAC1
:10016500F0A3C8C582C8CAC583CADFE9DEE780BE79
:0101D400002A
:00000001FF
