:0501270012012CD2A121
:03012C00000022AE
:1000E600E4FDFCC3ED9FEC9E50070DBD00010C80A6
:0100F600F217
:0100F70022E6
:0A011300D2A112012CD2A002012C8F
:0F00F800D2A0120127C2A012012CC2A102012C1A
:0A011D00C2A0120127D2A002012C9B
:1000AD00E4FEEF25E0FFC2A112012C92A012012760
:0E00BD000EBE08EEC2A112012CD2A002012C30
:0300CB001200AD73
:1000CE00E4FFD2A112012C30A009EFC394FF50031C
:0800DE000F80F4C2A102012C05
:10008C00AC071200F87FA01200CBAF041200CBAF6C
:10009C00051200AD1200CE12011D7F887E130200E6
:0100AC00E66D
:10005800759055120113E4FBFAAF03E4FD12008C0E
:100068007C007D0AAF03AE02120003ED4C700363FF
:1000780090FF0BBB00010AE4B503DEEAB401DAE441
:04008800F59080FE71
:03000000020107F3
:0C010700787FE4F6D8FD758107020058EF
:10000300BC000BBE0029EF8DF084FFADF022E4CCE1
:10001300F875F008EF2FFFEE33FEEC33FCEE9DECAA
:10002300984005FCEE9DFE0FD5F0E9E4CEFD22EDF0
:10003300F8F5F0EE8420D21CFEADF075F008EF2F3A
:10004300FFED33FD4007985006D5F0F222C398FD2B
:050053000FD5F0EA22C8
:00000001FF
