:10026C0004217965730003286E6F00062B61677299
:10027C006565000931646973616772656500043AEC
:09028C0020202000033E20200088
:100231007F8A1202D27F147E0012024EE5272430FB
:0D024100FF1202B97FCA1202D27F147E00A4
:10024E00D3EF9400EE940040147D6E7C00ED1D7093
:0D025E00011CED4C70F7EF1F70E61E80E3F1
:01026B002270
:1002D200C2B5C2B48F807F057E0012024ED2B47FB7
:0902E200057E0012024EC2B42296
:0402B5002BF8E6FF3D
:1002B900D2B5C2B48F807F057E0012024ED2B47FC0
:0902C900057E0012024EC2B422AF
:10029600C2A6C2A77F381202477F0C1202477F060A
:0F02A6001202477F011202D27F147E0002024E25
:1002EB007F8C120247E4FB74211202B512024A0BF7
:0302FB00BB03F44E
:0102FE0022DD
:1002FF007FCC120247E4FB74281202B512024A0B9C
:03030F00BB02F43A
:0103120022C8
:100313007F80120247E4FB742B1202B512024A0BD0
:03032300BB05F423
:0103260022B4
:100327007FC0120247E4FB74311202B512024A0B76
:03033700BB08F40C
:01033A0022A0
:1000030020014575B0FE85B0265326F0E52664F041
:1000130060367F0A7E0012024EE52664F060298571
:10002300B026E5262422600A24F0700A0527D201AF
:1000330080040525D201E52664F0600A85B02653C5
:1000430026F0C2A380F0D2A320024575B0FD85B08F
:10005300265326F0E52664F060367F0A7E001202FE
:100063004EE52664F0602985B026E5262423600A40
:1000730024F0700A0527D20280040525D202E52662
:1000830064F0600A85B0265326F0C2A380F0D2A3A1
:1000930020034575B0FB85B0265326F0E52664F0B2
:1000A30060367F0A7E0012024EE52664F0602985E1
:1000B300B026E5262425600A24F0700A0527D2031A
:1000C30080040525D203E52664F0600A85B0265333
:1000D30026F0C2A380F0D2A375B0F785B0265326CD
:1000E300F0E52664F0602A7F0A7E0012024EE526C0
:1000F30064F0601D85B026E52624197002D200E560
:100103002664F0600A85B0265326F0C2A380F0D29D
:02011300A32225
:10011500120296120313120327120003E527700437
:10012500E525600B120231E5252430FF1202B9E501
:10013500272525F9B90314E527D395254003120290
:10014500EBE527C3952550031202FF3000C5C20118
:10015500C202C203E4F527F525C200F91203131202
:100165000327120231E5252430FF1202B97F8C12D4
:1001750002D2E4FA743A2AF8E6FF1202B912024AE8
:100185000ABA03F07FCC1202D2E4FAEAC394025011
:1001950082743E2AF8E6FF1202B912024A0A80EB7F
:030000000201A555
:0C01A500787FE4F6D8FD7581400201EC83
:1001B100020115E493A3F8E493A34003F68001F24E
:1001C10008DFF48029E493A3F85407240CC8C3334F
:1001D100C4540F4420C8834004F456800146F6DF1E
:1001E100E4800B010204081020408090026CE47E40
:1001F100019360BCA3FF543F30E509541FFEE49313
:10020100A360010ECF54C025E060A840B8E493A3D9
:10021100FAE493A3F8E493A3C8C582C8CAC583CA04
:10022100F0A3C8C582C8CAC583CADFE9DEE780BEBC
:010295000068
:00000001FF
