:0608C3000108FA010932F0
:03000B0002088C5C
:10088C00C0E0C0D0758CD1758A20050AE50AB5097F
:10089C000575A000800BE50AB50806750A0075A061
:0608AC0001D0D0D0E032C3
:1008B200758901758CD1758A20D2A9D2AFD28C806C
:0108C200FE37
:03000000020800F3
:0C080000787FE4F6D8FD75810A020847F5
:10080C000208B2E493A3F8E493A34003F68001F248
:10081C0008DFF48029E493A3F85407240CC8C333ED
:10082C00C4540F4420C8834004F456800146F6DFBC
:10083C00E4800B01020408102040809008C3E47E81
:10084C00019360BCA3FF543F30E509541FFEE493B1
:10085C00A360010ECF54C025E060A840B8E493A378
:10086C00FAE493A3F8E493A3C8C582C8CAC583CAA3
:10087C00F0A3C8C582C8CAC583CADFE9DEE780BE5B
:0108C900002E
:00000001FF
