:100118003031323334353637383941424344454635
:0101280000D6
:09012900010A00010800010900AF
:10010700E4FEE4FDEDC39F50030D80F80EBE82F2BE
:0101170022C5
:10008F00AC077FC81201077598C0758920758BFD65
:10009F00758DFDD28ED29B8C993099FDC299C29BE2
:1000AF00EC24FE601904702EAF080508EF900118BC
:1000BF0093F599E508C39410401CE4F50822AF09A5
:1000CF000509EF90011893F599E509C394104006BF
:0700DF00E4F50922C2992299
:1000E6007590FFE590F460FBAF90EF2411600B2450
:1000F600F170ED7F0112008F80E67F0212008F8083
:01010600DF19
:03000000020003F8
:0C000300787FE4F6D8FD75810A02004AFF
:10000F000200E6E493A3F8E493A34003F68001F221
:10001F0008DFF48029E493A3F85407240CC8C333F2
:10002F00C4540F4420C8834004F456800146F6DFC1
:10003F00E4800B0102040810204080900129E47E27
:10004F00019360BCA3FF543F30E509541FFEE493B6
:10005F00A360010ECF54C025E060A840B8E493A37D
:10006F00FAE493A3F8E493A3C8C582C8CAC583CAA8
:10007F00F0A3C8C582C8CAC583CADFE9DEE780BE60
:0101320000CC
:00000001FF
