:100443003F065B4F666D7D077F6F777C395E797101
:0104530000A8
:10043000011610011710011810011910011A1001EE
:020440001B108F
:06041C00D2A7C2A77F0574
:0D042200EFD3940040077E7DDEFE1F80F3C7
:01042F0022AA
:1001C60075B0FE85B00E530EF0E50E64F0604C7F00
:1001D6000A120422E50E64F0604185B00EE50E2495
:1001E60082602124C0601624E0600B24F0701AE4BB
:1001F600F510050F8013751001050F800C751002A0
:10020600050F8005751003050FE50E64F0600A857D
:10021600B00E530EF0C2A380F0D2A375B0FD85B028
:100226000E530EF0E50E64F0604C7F0A120422E5D0
:100236000E64F0604185B00EE50E2483602124C073
:10024600601624E0600B24F0701A751004050F8008
:1002560013751005050F800C751006050F800575C2
:100266001007050FE50E64F0600A85B00E530EF018
:10027600C2A380F0D2A375B0FB85B00E530EF0E595
:100286000E64F0603F7F0A120422E50E64F06034CB
:1002960085B00EE50E2485601624A0600B24F07050
:1002A60011751008050F800A751009050F80037572
:1002B6001501E50E64F0600A85B00E530EF0C2A378
:0502C60080F0D2A3222C
:10035700C2A6EF90044393F580D2A6C2A6C2A775A2
:1003670080FE12041CED93F580D2A6C2A67580FD0F
:1003770012041CEB93F580D2A6C2A67580FB12046B
:100387001CE51F93F580D2A6C2A67580F712041C40
:10039700E52093F580D2A6C2A67580EF12041CE56E
:1003A7002193F580D2A6C2A67580DFD2A7C2A77F08
:0403B7000502042215
:100003001201C6E50F604224FE601814601D1460DF
:100013002214602714602C2405702E851016851673
:10002300088026851017851709801E8510188518E6
:100033000A801685101985190B800E85101A851AEA
:100043000C800685101B851B0DE51570030201B19D
:10005300E4F515E50F24FE60221460361460551490
:1000630070030200EA1470030201322405600302E4
:1000730001A2E4850814F51302012CE50875F00AC2
:10008300A47C002509FFEC35F0FEE48F148E1302E7
:10009300012CE50975F00AA47C00250AFDEC35F076
:1000A300FCE50875F064A42DFFE5F03CFEE48F1435
:1000B3008E138075E50A75F00AA47C00250BFDEC10
:1000C30035F0FCE50975F064A42DFBE5F03CFAAFCF
:1000D300087E007C037DE81203BBEF2BFFEE3AFEA4
:1000E300E48F148E138042E50B75F00AA47C00257F
:1000F3000CFDEC35F0FCE50A75F064A42DFBE5F08E
:100103003CFAAF097E007C037DE81203BBEF2BFBB7
:10011300EE3AFAAF087E007C277D101203BBEF2B6B
:10012300FFEE3AFEE48F148E13F512F5118070E59D
:100133000C75F00AA47C00250DFDEC35F0FCE50BF5
:1001430075F064A42DFBE5F03CFAAF0A7E007C0356
:100153007DE81203BBEF2BFBEE3AFAAF097E007C7E
:10016300277D101203BBEF2BFFEE3AFEE4FCFDC02C
:1001730004C005C006C007AF08FE7BA07A867901DC
:10018300F81203CDD003D002D001D000EF2BFFEE45
:100193003AFEED39FDEC388F148E138D12F511E410
:1001A300F50FF508F509F50AF50BF50CF50D8519AD
:1001B3001F851A20851B21AB18AD17AF16120357E5
:0301C30002000334
:030000000202CB2E
:0C02CB00787FE4F6D8FD75812102031253
:1003BB00EF8DF0A4A8F0CF8CF0A428CE8DF0A42E56
:0203CB00FE2210
:1003CD00E88FF0A4CC8BF0A42CFCE98EF0A42CFCCF
:1003DD008AF0EDA42CFCEA8EF0A4CDA8F08BF0A44D
:1003ED002DCC3825F0FDE98FF0A42CCD35F0FCEBAC
:1003FD008EF0A4FEA9F0EB8FF0A4CFC5F02ECD3971
:0F040D00FEE43CFCEAA42DCE35F0FDE43CFC22DD
:1002D700020003E493A3F8E493A34003F68001F23A
:1002E70008DFF48029E493A3F85407240CC8C33328
:1002F700C4540F4420C8834004F456800146F6DFF7
:10030700E4800B0102040810204080900430E47E52
:10031700019360BCA3FF543F30E509541FFEE493EB
:10032700A360010ECF54C025E060A840B8E493A3B2
:10033700FAE493A3F8E493A3C8C582C8CAC583CADD
:10034700F0A3C8C582C8CAC583CADFE9DEE780BE95
:0104420000B9
:00000001FF
