:100391003F065B4F666D7D077F6F777C395E7971B4
:0600030001160A011801BC
:06036400D2A7C2A77F052D
:10036A008F1DE51DD39400400A751E7DD51EFD150F
:04037A001D80EF22D1
:0902C400850D26AB0EAD0AAF0C4E
:1002CD00C2A6EF90039193F580D2A6C2A6C2A775E0
:1002DD0080FE120364ED934480F580D2A6C2A6750C
:1002ED0080FD120364EB93F580D2A6C2A67580FB48
:1002FD00120364E524934480F580D2A6C2A67580CE
:10030D00F7120364E52593F580D2A6C2A67580EF9A
:10031D00120364E52693F580D2A6C2A67580DFD2BE
:08032D00A7C2A77F0502036AC5
:1003350075B0FB85B0145314F0E51464F0601F7FAD
:100345000A12036AE51464F0601485B014E51424F8
:0F03550085600824C07007E4F51822751801228E
:10013C0075B0FE85B0145314F0E51464F0604C7F78
:10014C000A12036AE51464F0604185B014E51424C6
:10015C0082602124C0601624E0600B24F0701AE445
:10016C00F516051580137516010515800C7516020C
:10017C00051580057516030515E51464F0600A85F0
:10018C00B0145314F0C2A380F0D2A375B0FD85B0A7
:10019C00145314F0E51464F0604C7F0A12036AE502
:1001AC001464F0604185B014E5142483602124C0EC
:1001BC00601624E0600B24F0701A75160405158087
:1001CC00137516050515800C751606051580057535
:1001DC0016070515E51464F0600A85B0145314F085
:1001EC00C2A380F0D2A375B0FB85B0145314F0E514
:1001FC001464F060367F0A12036AE51464F0602B15
:10020C0085B014E5142425600B24F0700C751608C9
:10021C00051580057516090515E51464F0600A8549
:0C022C00B0145314F0C2A380F0D2A3223F
:10000E00758901758C4CE4F58AD2A9D2AF120335ED
:10001E00E5186401706BD28CF515E51A6414451958
:10002E007022F519F51A051FE51FB43C17E4F51FEC
:10003E00051CE51CB43C0DE4F51C0520E520B418A8
:10004E0003E4F520E52075F00A8485F00AE52075B5
:10005E00F00A84F50CE51C75F00A8485F00BE51C9E
:10006E0075F00A84F50EE51F75F00A8485F00DE52E
:10007E001F75F00A84F50F850B24F5251202C48036
:10008E008CC28C12013CE516640A6078E51524FEDC
:10009E006020146044146051146053146060240591
:1000AE00705FE516C39403500585160C8053151525
:1000BE00804FE50C70047F0180027F00E50CB401D7
:1000CE00047E0180027E00EE4F60028007E516C3BB
:1000DE009405502D85160A8028E516C39407500501
:1000EE0085160E801C1515801885160B8013E516C7
:1000FE00C39407500585160F8007151580038516C6
:10010E000D75160AE50F75F00AA4250DF51FE50EFF
:10011E0075F00AA4250BF51CE50C75F00AA4250A4A
:0E012E00F520850B24850F251202C402001B4C
:03000B0002037E6F
:10037E00C0E0758C4C758A00051AE51A70020519D5
:03038E00D0E0328A
:03000000020238C1
:0C023800787FE4F6D8FD75812602027F75
:1002440002000EE493A3F8E493A34003F68001F2C2
:1002540008DFF48029E493A3F85407240CC8C333BB
:10026400C4540F4420C8834004F456800146F6DF8A
:10027400E4800B0102040810204080900003E47E17
:10028400019360BCA3FF543F30E509541FFEE4937F
:10029400A360010ECF54C025E060A840B8E493A346
:1002A400FAE493A3F8E493A3C8C582C8CAC583CA71
:1002B400F0A3C8C582C8CAC583CADFE9DEE780BE29
:0100090000F6
:00000001FF
