:0A08DD003F065B4F666D7D077F6FDD
:0308E70001080005
:03000B0002088C5C
:10088C00C0E0C0F0C083C082C0D00508E508B464E5
:10089C0003750800E50875F00A849008DD93F5806F
:1008AC00E50875F00A84E5F093F5A0D0D0D082D09D
:0608BC0083D0F0D0E03211
:1008C2009008DDE493FFF5A08F80758906758AFF95
:0B08D200758CFFD2A9D2AFD28C80FE43
:03000000020800F3
:0C080000787FE4F6D8FD758108020847F7
:10080C000208C2E493A3F8E493A34003F68001F238
:10081C0008DFF48029E493A3F85407240CC8C333ED
:10082C00C4540F4420C8834004F456800146F6DFBC
:10083C00E4800B01020408102040809008E7E47E5D
:10084C00019360BCA3FF543F30E509541FFEE493B1
:10085C00A360010ECF54C025E060A840B8E493A378
:10086C00FAE493A3F8E493A3C8C582C8CAC583CAA3
:10087C00F0A3C8C582C8CAC583CADFE9DEE780BE5B
:0108EA00000D
:00000001FF
