:03010600010801EC
:1000E6008E098F0AD3E50A9400E50994004010753D
:1000F6000B72D50BFDE50A150A70E9150980E52294
:10008F007F017E001200E6E508B4010B20B51130A8
:10009F00B5FDE4F508800920B50630B5FD750801FA
:1000AF00E508B401047F0180027F0020B4047E01C3
:0800BF0080027E00EE5F60CFBD
:1000C700750C05750C05E50CD3940040C2C2A37FDF
:0F00D700207E031200E6D2A31200E6150C80E78C
:03000000020003F8
:0C000300787FE4F6D8FD75810C02004AFD
:10000F0002008FE493A3F8E493A34003F68001F278
:10001F0008DFF48029E493A3F85407240CC8C333F2
:10002F00C4540F4420C8834004F456800146F6DFC1
:10003F00E4800B0102040810204080900106E47E4A
:10004F00019360BCA3FF543F30E509541FFEE493B6
:10005F00A360010ECF54C025E060A840B8E493A37D
:10006F00FAE493A3F8E493A3C8C582C8CAC583CAA8
:10007F00F0A3C8C582C8CAC583CADFE9DEE780BE60
:0101090000F5
:00000001FF
