:10012E003F065B4F666D7D077F6F777C395E797119
:03000300010E3CAF
:100107008F0AE50AD39400400A750B7DD50BFD15C0
:040117000A80EF2249
:1000D800C2A6EF90012E93F580D2A6C2A6C2A7753C
:1000E80080FED2A7C2A77F05120107ED93F580D243
:0F00F800A6C2A67580FDD2A7C2A77F0502010789
:10009A00758901D28C758C4CE4F58AD2A9D2AFE568
:1000AA000D6414450C7006F50CF50D150EE50E756C
:1000BA00F00A8485F008E50E75F00A84F509AD08A2
:0E00CA00FF1200D8E50E70D7C28CC2A380D101
:03000B0002011BD4
:10011B00C0E0758C4C758A00050DE50D7002050C61
:03012B00D0E032EF
:0300000002000EED
:0C000E00787FE4F6D8FD75810E020055E5
:10001A0002009AE493A3F8E493A34003F68001F262
:10002A0008DFF48029E493A3F85407240CC8C333E7
:10003A00C4540F4420C8834004F456800146F6DFB6
:10004A00E4800B0102040810204080900003E47E43
:10005A00019360BCA3FF543F30E509541FFEE493AB
:10006A00A360010ECF54C025E060A840B8E493A372
:10007A00FAE493A3F8E493A3C8C582C8CAC583CA9D
:10008A00F0A3C8C582C8CAC583CADFE9DEE780BE55
:0100060000F9
:00000001FF
