:1005A4003F065B4F666D7D077F6F777C395E79719F
:0105B4000046
:10059100010A00010B01010C02010D03010E04010E
:0205A1000F0544
:0D054800E4FD1204FC7FF47E017D007C00C8
:100555008F178E168D158C14E4FFFEFDFCAB17AAC4
:1005650016A915A814D31205B5402075187DD51800
:10057500FDE51724FFF517E51634FFF516E51534E7
:0C058500FFF515E51434FFF51480CD22BD
:1004FC00C2A6ED9005A493F580D2A6C2A6C2A7EF22
:10050C0024FE601514601714601914601B14601D10
:10051C00240570277580FE80177580FD801275800C
:10052C00FB800D7580F780087580EF80037580DF88
:0C053C00D2A7C2A77F057E001205512245
:0C03BD00751F107520107D017B10E4FFFF
:1003C9008D1C8B1DC2A6EF9005A493F580D2A6C201
:1003D900A6C2A77580FED2A7C2A77F057E00120517
:1003E90051E51C9005A493F580D2A6C2A67580FD9F
:1003F900D2A7C2A77F057E00120551E51D9005A46D
:1004090093F580D2A6C2A67580FBD2A7C2A77F05A5
:100419007E00120551E51E9005A493F580D2A6C26F
:10042900A67580F7D2A7C2A77F057E00120551E500
:100439001F9005A493F580D2A6C2A67580EFD2A716
:10044900C2A77F057E00120551E5209005A493F50A
:1004590080D2A6C2A67580DFD2A7C2A77F057E007B
:070469007D007C0002055537
:100003007F061205487F05120548E4FD7F041205AB
:100013004AE4FD7F0312054AE4FD7F0212054AE428
:10002300FD7F0112054A7D017F0612054A7D017F8E
:100033000512054A7D017F0412054A7D017F0312E3
:10004300054A7D017F0212054A7D027F0612054A99
:100053007D027F0512054A7D027F0412054A7D0257
:100063007F0312054A7D037F0612054A7D037F0540
:1000730012054A7D037F0412054A7D047F0612059B
:100083004A7D047F0512054A7D057F0612054A75E0
:100093001932751E10751F10E4F5207B107D107F3B
:1000A300101203C97F027E001205511519E519D3F9
:1000B300940050DE751932751E10E4F51F7520107B
:1000C3007B107D107F101203C97F027E0012055141
:1000D3001519E519D3940050DE751932E4F51E7530
:1000E3001F107520107B107D107F101203C97F0233
:1000F3007E001205511519E519D3940050DE7519C8
:1001030032751E10751F10752010E4FB7D107F10D3
:100113001203C97F027E001205511519E519D39404
:100123000050DE751932751E10751F107520107B77
:1001330010E4FD7F101203C97F027E0012055115E2
:1001430019E519D3940050DE751932751E10751F09
:10015300107520107D101203C57F027E0012055119
:100163001519E519D3940050E2751932751E1075EF
:100173001F107520017B107D10E4FF1203C97F025D
:100183007E001205511519E519D3940050DE751937
:1001930032751E10751F017520107B107D10E4FF52
:1001A3001203C97F027E001205511519E519D39474
:1001B3000050DE751932751E01751F107520107BF6
:1001C300107D10E4FF1203C97F027E001205511552
:1001D30019E519D3940050DE751932751E10751F79
:1001E300107520107B017D10E4FF1203C97F027E8E
:1001F300001205511519E519D3940050DE75193213
:10020300751E101203BD7F027E001205511519E5FC
:1002130019D3940050EA751932751E10751F1075A5
:1002230020021203C37F027E001205511519E5193E
:10023300D3940050E4751932751E10751F02120312
:10024300C07F027E001205511519E519D3940050A1
:10025300E7751932751E021203BD7F027E00120577
:10026300511519E519D3940050EA751932751E100A
:10027300751F107520107B027D01E4FF1203C97FF7
:10028300027E001205511519E519D3940050DE754D
:100293001932751E10751F107520037B027D01E452
:1002A300FF1203C97F027E001205511519E519D308
:1002B300940050DE751932751E10751F03752010DA
:1002C3007B027D01E4FF1203C97F027E0012055108
:1002D3001519E519D3940050DE751932751E03758F
:1002E3001F107520107B027D01E4FF1203C97F02FA
:1002F3007E001205511519E519D3940050DE7519C6
:1003030032751E03751F107520047B027D01E4FF07
:100313001203C97F027E001205511519E519D39402
:100323000050DE751932751E03751F047520107B8E
:10033300027D01E4FF1203C97F027E0012055115FD
:1003430019E519D3940050DE751932751E03751F14
:10035300047520057B027D01E4FF1203C97F027E41
:10036300001205511519E519D3940050DE751A04CE
:10037300E51AD394005003020003751964751E0334
:10038300751F047520057B027D01E4FF1203C91567
:1003930019E519D3940050E5751964751E10751F7E
:1003A300107520107B107D107F101203C91519E5FD
:0A03B30019D3940050E5151A80B626
:0300000002047087
:0C047000787FE4F6D8FD7581200204B707
:1005B500EB9FF5F0EA9E42F0E99D42F0E89C45F09C
:0105C5002213
:10047C00020003E493A3F8E493A34003F68001F293
:10048C0008DFF48029E493A3F85407240CC8C33381
:10049C00C4540F4420C8834004F456800146F6DF50
:1004AC00E4800B0102040810204080900591E47E4A
:1004BC00019360BCA3FF543F30E509541FFEE49345
:1004CC00A360010ECF54C025E060A840B8E493A30C
:1004DC00FAE493A3F8E493A3C8C582C8CAC583CA37
:1004EC00F0A3C8C582C8CAC583CADFE9DEE780BEEF
:0105A3000057
:00000001FF
